:1002B40001030206040C080909080C0406020301E0
:1002C4001030206040C080909080C040602030108A
:08036900020B0320020D03202A
:05000300120008D2917B
:0100080022D5
:0A034B00D290120003C290020008D5
:0A035500C290120003D290020008CB
:0A029200AD0712034B7F901202D457
:10029C00D29112000830900BE513C394FA50040568
:0802AC001380F2C29102000868
:0A035F00D290120008D291020008AB
:10026D00C291120008D290120008E4FED291120041
:10027D0008EF25E0FDA290E4334DFFC29112000876
:04028D000EBE08E8B1
:01029100224A
:1002D400E4FEEF25E0FFC2911200089290120003A1
:0E02E4000EBE08EEC291120008D29002000871
:10032800AC07120294AF041202D412029CAF051259
:0803380002D412029C020355DD
:1002F200120292AF051202D412029C12034B7F919A
:0C0302001202D412029C12026D1203556C
:01030E0022CC
:10030F001202927F401202D412029CAF051202D445
:09031F0012029C1203557F012219
:0B034000EF1FAC0670011E4C70F6228F
:1002130020B5297FE87E0312034020B51F20B50ACD
:10022300C207C205C204C20080F3B201750D037593
:100233000E20750B03750C20C203C20220012A2075
:10024300B406D204C200800D20B606C204D20080D8
:1002530004C200C20420B305D207C2052220B70599
:0A026300C207D20522C205C207221D
:10009A00300175200672E509D39508401AC204E5B5
:1000AA00099508FFC3940F4004D2008023EFD3942C
:1000BA0004501DC2008019C200C3E5089509FFC398
:1000CA00940F4004D2048008EFD394045002C2046F
:1000DA00E512D395114018C205E5129511FFC39494
:1000EA000F4003D20722EFD39407502AC20722C235
:1000FA0007C3E5119512FFC3940F4003D20522EFFF
:10010A00D394075011C2052230010B300608C200F1
:07011A00C204C207C2052266
:1001A300758901758CF6758A3BD2AFD2A9D28C12B0
:1001B300035F120213E4FF1202F28F087F0112029F
:1001C300F28F097F021202F28F117F031202F28F64
:1001D30012E508F4601FE508601BE509F46016E505
:1001E300096012E511F4600DE5116009E512F46090
:1001F30004E5127004D2068002C20612009A200699
:10020300B1200106C292D29380A8D292C29380A257
:03000B00020121CE
:10012100C0E0C083C082C0D075D000C006C00775D2
:100131008CF6758A3B300407E50A9002B4800830DA
:100141000012E50A9002BC93FFE5A054F0FEEF4EC9
:10015100F5A0800353A0F0300707E50A9002C480A0
:1001610008300512E50A9002CC93FFE5A0540FFE7A
:10017100EF4EF5A0800353A00FE50A045407F50ADA
:10018100300612050FE50FD394254009750F00B213
:1001910092A2929293D007D006D0D0D082D083D0B1
:0201A100E0324A
:0300000002000EED
:0C000E00787FE4F6D8FD758120020055D3
:10001A000201A3E493A3F8E493A34003F68001F258
:10002A0008DFF48029E493A3F85407240CC8C333E7
:10003A00C4540F4420C8834004F456800146F6DFB6
:10004A00E4800B0102040810204080900369E47EDA
:10005A00019360BCA3FF543F30E509541FFEE493AB
:10006A00A360010ECF54C025E060A840B8E493A372
:10007A00FAE493A3F8E493A3C8C582C8CAC583CA9D
:10008A00F0A3C8C582C8CAC583CADFE9DEE780BE55
:01037100008B
:00000001FF
