:03000000020126D4
:0C012600787FE4F6D8FD75813102016D90
:100294002D2D50686F6E6520436F64652D2D2020D1
:1002A400003132333435363738392A3023EFDFBF63
:0D02B4007FEEEDEBDEDDDBBEBDBB7E7D7BB6
:100322000E242020202020202020202020202000F9
:070332000123FF022100007E
:10033A00EF1FAA0670011E4A600BE4FDEDC3947814
:05034A0050EE0D80F7EC
:01034F00228B
:0802C1008B098A0A890BAF05C5
:1002C900120364E4F50CAB09AA0AA90B850C827523
:1002D90083001200F9FF120308050CE50CC3941002
:0202E90040E4EF
:0102EB0022F0
:10035000C2A0D2A1D2A200000000E580339200C268
:03036000A2A20056
:010363002277
:1002EC0012035040FBC2A0C2A1C2A200008F80002A
:0C02FC00000000D2A200000000C2A222FC
:1003080012035040FBD2A0C2A1C2A28F80000000FD
:0A03180000D2A200000000C2A222E1
:100265007F381202EC7F057E0012033A7F011202ED
:10027500EC7F057E0012033A7F061202EC1F7E001A
:0F02850012033A7F0C1202EC7F057E0002033A4F
:07036400EF4480FF0202ECF0
:10020C00E4F509780A7C00FD7BFF7A0279B1FE7F68
:10021C00041200D3780E7C007D007BFF7A0279B546
:10022C007E007F0C1200D375B00FE5B0640F602612
:10023C00E4FF740A2FF8E6F5B0E4FEEF75F003A4C2
:10024C002EF509240EF8E6B5B003AF09220EBE0355
:08025C00EA0FBF04DD227FFF61
:010264002277
:1001B200E4F5087580FF75A0FF7590FF1202657B5C
:1001C200FF7A027994E4FD1202C112020C8F23E538
:1001D20023F460F60508E508B40C0D7F107824744A
:1001E20020F608DFFCE4F508E5239002A593FF74EE
:1001F200242508F8A6077B007A0079247D401202A4
:0A020200C112020CEFF460C280F795
:100132000201B2E493A3F8E493A34003F68001F230
:1001420008DFF48029E493A3F85407240CC8C333CE
:10015200C4540F4420C8834004F456800146F6DF9D
:10016200E4800B0102040810204080900322E47E08
:10017200019360BCA3FF543F30E509541FFEE49392
:10018200A360010ECF54C025E060A840B8E493A359
:10019200FAE493A3F8E493A3C8C582C8CAC583CA84
:1001A200F0A3C8C582C8CAC583CADFE9DEE780BE3C
:0103390000C3
:10000300E709F608DFFA8046E709F208DFFA803EDF
:1000130088828C83E709F0A3DFFA8032E309F608CC
:10002300DFFA8078E309F208DFFA807088828C8334
:10003300E309F0A3DFFA806489828A83E0A3F608E8
:10004300DFFA805889828A83E0A3F208DFFA804CC2
:1000530080D280FA80C680D4806980F28033801099
:1000630080A680EA809A80A880DA80E280CA803302
:1000730089828A83ECFAE493A3C8C582C8CCC5837A
:10008300CCF0A3C8C582C8CCC583CCDFE9DEE7804A
:100093000D89828A83E493A3F608DFF9ECFAA9F0C9
:1000A300EDFB2289828A83ECFAE0A3C8C582C8CC1F
:1000B300C583CCF0A3C8C582C8CCC583CCDFEADE38
:1000C300E880DB89828A83E493A3F208DFF980CC9A
:1000D30088F0EF60010E4E60C388F0ED2402B40493
:1000E3000050B9F582EB2402B4040050AF2323453A
:0600F3008223900053730C
:1000F900BB010CE58229F582E5833AF583E02250BC
:1001090006E92582F8E622BBFE06E92582F8E22205
:0D011900E58229F582E5833AF583E493221F
:00000001FF
