:0300000002076F85
:0C076F00787FE4F6D8FD7581200207B603
:1009630020504D322E353A2020203075672F6D33BD
:100973000020414C41524D3A2032353075672F6D7E
:0209830033003F
:100A1300020D0000040F00000000020B00FAC101E8
:040A2300C100C1024B
:1007FB00E4FEFDC290D29100C29300D29000EF7044
:10080B000EC290D29100D29000C290C291800CC2C5
:10081B0090D29100D29000C290D29100D29000C29F
:10082B0090D291E4FF00EE25E0FED29000C2903012
:10083B00910543060180000FBF08EAE4FFEDC313E7
:10084B00FD309105430580800000D29000C2900FCF
:10085B00BF08EAEEB50507AF05750D008F0E00D288
:07086B0093D291D290AF0E71
:010872002263
:1009FB00D2A9758911758AB0758C3CD28C758BB068
:080A0B00758D3CD2ABD28E22A6
:03000B000209A443
:0409A400C0E0C0D01F
:1009A800758AB0758C3C0516E516C394144005D2BB
:0409B80001751600AF
:0509BC00D0D0D0E032B4
:03001B0002091BBC
:04091B00C0E0C0D0A8
:10091F00758BB0758D3C0517E517C3940A400C75A0
:0B092F001700300004B2B78002D2B7FE
:05093A00D0D0D0E03236
:1009C100E4FFFEE4FDFC0DBD00010CED64034C7081
:0C09D100F50FBF00010EEF640B4E70E745
:0109DD0022F7
:04093F007F147E00A3
:10094300E4FDFCC3ED9FEC9E5015E4FBFA0BBB00EA
:0F095300010AEB646E4A70F50DBD00010C80E4E3
:010962002272
:0E0A28008F80C2A7D2A61209C1C2A60209C1C0
:0F09DE00AE0BAF0C7C007D0A120514ED2430FF28
:0E09ED008F80D2A7D2A61209C1C2A60209C1EC
:1008BF007F38120A287F0C120A287F06120A287F17
:1008CF0001120A287F80120A287BFF7A0979637D3B
:1008DF00017F011208F27BFF7A0979747D017F0293
:0308EF000208F20A
:06098500ED2430FB7D0BA8
:02098B00AE07B5
:10098D00BE01027A80BE02027AC0EA2D14FAFF126D
:07099D000A28AF030209ED77
:1008F200BF0103751580BF02037515C0E5152D14E0
:10090200F515FF120A281204A6FF600C1209ED74F5
:080912000129F9E43AFA80EE34
:01091A0022BA
:10055800AE08AF097C277D101204BF7E037FE8CF69
:10056800CDCFCECCCE1204BFEF4E6006EF2430FBC9
:1005780080027B207D087F0112098BAE08AF097CC1
:10058800277D101204BF7E007F64CFCDCFCECCCEA6
:100598001204BFEF4E601EAE08AF097C037DE8125F
:1005A80004BF7E007F64CFCDCFCECCCE1204BFEF88
:1005B8002430FB80027B207D097F0112098BAE0865
:1005C800AF097C277D101204BF7E007F0ACFCDCFF4
:1005D800CECCCE1204BFEF4E601EAE08AF097C0031
:1005E8007D641204BF7E007F0ACFCDCFCECCCE1261
:1005F80004BFEF2430FB80027B207D0A7F011209B3
:100608008BAE08AF097C007D0A1204BF7F01120976
:1006180085AE0BAF0C7C277D101205147E037FE896
:10062800CFCDCFCECCCE120514EF4E6006EF2430DE
:10063800FB80027B207D087F0212098BAE0BAF0C7A
:100648007C277D101205147E007F64CFCDCFCECCE1
:10065800CE120514EF4E601EAE0BAF0C7C037DE886
:100668001205147E007F64CFCDCFCECCCE120514F8
:10067800EF2430FB80027B207D097F0212098BAEBC
:100688000BAF0C7C277D101205147E007F0ACFCD9E
:10069800CFCECCCE120514EF4E601EAE0BAF0C7C45
:1006A800007D641205147E007F0ACFCDCFCECCCE5C
:1006B800120514EF2430FB80027B207D0A7F021292
:1006C800098BAE0BAF0C7C007D0A1205147F021259
:0506D8000985D2B722E4
:10001E0030B4030200FC12093F30B4030200FCC2EC
:10002E00B7B202A202B3928C2002030200F27FC783
:10003E00120A28AE0BAF0C7C277D101205147E031E
:10004E007FE8CFCDCFCECCCE120514EF4E6006EFAB
:10005E002430FF80027F201209EDAE0BAF0C7C27FF
:10006E007D101205147E007F64CFCDCFCECCCE1284
:10007E000514EF4E601EAE0BAF0C7C037DE812052F
:10008E00147E007F64CFCDCFCECCCE120514EF24DC
:10009E0030FF80027F201209EDAE0BAF0C7C277D66
:1000AE00101205147E007F0ACFCDCFCECCCE120516
:1000BE0014EF4E601EAE0BAF0C7C007D6412051467
:1000CE007E007F0ACFCDCFCECCCE120514EF2430DA
:1000DE00FF80027F201209ED1209DE7F0F120A281F
:1000EE007FCA80027F0C120A28D2B730B4FD30B519
:1000FE00030201EE2002030201EE12093F30B503A6
:10010E000201EB2002030201EBC2B7740A250CF5C3
:10011E000CE4350BF50BC3E50C94E8E50B64809409
:10012E00834006750B03750CE87FC7120A28AE0BC9
:10013E00AF0C7C277D101205147E037FE8CFCDCF48
:10014E00CECCCE120514EF4E6006EF2430FF8002A7
:10015E007F201209EDAE0BAF0C7C277D101205141B
:10016E007E007F64CFCDCFCECCCE120514EF4E6085
:10017E001EAE0BAF0C7C037DE81205147E007F646F
:10018E00CFCDCFCECCCE120514EF2430FF80027F20
:10019E00201209EDAE0BAF0C7C277D101205147EDC
:1001AE00007F0ACFCDCFCECCCE120514EF4E601EFF
:1001BE00AE0BAF0C7C007D641205147E007F0ACF5F
:1001CE00CDCFCECCCE120514EF2430FF80027F208F
:1001DE001209ED1209DE7FCA120A28D2B730B5FD18
:1001EE0030B6030202E02002030202E012093F30A1
:1001FE00B6030202DD2002030202DDC2B774F62549
:10020E000CF50C74FF350BF50BC3E50C940AE50BDE
:10021E00648094805005E4F50BF50C7FC7120A2814
:10022E00AE0BAF0C7C277D101205147E037FE8CF3A
:10023E00CDCFCECCCE120514EF4E6006EF2430FF9C
:10024E0080027F201209EDAE0BAF0C7C277D1012C1
:10025E0005147E007F64CFCDCFCECCCE120514EF29
:10026E004E601EAE0BAF0C7C037DE81205147E00B3
:10027E007F64CFCDCFCECCCE120514EF2430FF80CD
:10028E00027F201209EDAE0BAF0C7C277D101205FC
:10029E00147E007F0ACFCDCFCECCCE120514EF4EFA
:1002AE00601EAE0BAF0C7C007D641205147E007FC9
:1002BE000ACFCDCFCECCCE120514EF2430FF800264
:1002CE007F201209ED1209DE7FCA120A28D2B7303A
:0302DE00B6FD2248
:10087300C3E509950CE508950B400BD200C2A2D243
:10088300A1D2A0C2A422C3E509950CE508950B509B
:100893001EAE0BAF0C7C007D02120514C3E5099F4D
:1008A300E5089E400AD2A2C2A1D2A0D2A48008D257
:0C08B300A2D2A1C2A0D2A4C200D2B722DF
:1006DD00C2AF1209FBD2AFC2A51208BF30017A20FA
:1006ED000277C28CE4F9E4FF1207FB7508008F094D
:1006FD00E5092514F514E5083513F5137F647E001F
:10070D0012094312001E09B932DCAE13AF147C007E
:10071D007D321204BF8E088F09E4F513F514FC7DAC
:10072D00051204BFAC06AD07E41203ECC004C0050E
:10073D00C006C007AC08AD09E41203ECD003D0022B
:10074D00D001D0001202E11204258E088F09120883
:10075D0073200203120558D28C12001E1208730268
:02076D0006E99B
:1002E100EC4D6011E8497017ED33EC3304600DE417
:1002F100FCFFFEFD22E933E8330470F80204911299
:10030100045C58046009E4CC248150062850090299
:10031100049B284003020498C0E0EB4A7044B98072
:1003210006D0E0FB020487EF4E701CBD8008EBFF96
:10033100EAFEE9FD80EBE98DF0A4FEE5F00203CAD7
:10034100E9CDF9EAFEEBFFEF89F0A4FCE5F0CE89F7
:10035100F0A42EFFE435F0CD89F0A42DFEE435F0B4
:100361008067EF4E7005BD80D780C3EF8BF0A4ACE2
:10037100F0EE8BF0A42CFCE435F0F8EF8AF0A42C1D
:10038100E5F038FCE433CB8DF0A42CFCE5F03BF830
:10039100EE8AF0A42CFCE5F038F8E433CF89F0A420
:1003A1002CFCE5F038CF3400CE89F0A42FFFE5F026
:1003B1003EFEE433C98DF0A42EFEE5F039CD8AF07E
:1003C100A42FFFE5F03EFEE43DFD33D0E0FB5007F6
:1003D1000BBB000F02049BEC2CFCEF33FFEE33FE52
:0603E100ED33FD02047380
:1003E70075F020800E75F010800575F0087D007E91
:1003F700007F003392D530D50312054AEC33401005
:10040700EF33FFEE33FEED33FDEC33FCD5F0ED2299
:0E041700E5F0247EA2D513CC92E7CDCEFF22D5
:10042500EDD2E7CD33EC3392D524814006E4FFFECF
:10043500FDFC22FCE4CFCECDCC24E0501174FF802E
:10044500EDC3CC13CCCD13CDCE13CECF13CF0470CB
:07045500F030D5DE02054A7C
:10045C00E9D2E7C933E833F892D5EDD2E7CD33ECE6
:07046C0033FC5002B2D5225F
:10047300EC30E7100FBF000C0EBE00080DBD0004EA
:100483000BEB6014A2D5EB13FCED92E7FD2274FF96
:10049300FCFDFEFF22E480F8A2D574FF13FC7D80EF
:0304A300E480EF03
:10077B000206DDE493A3F8E493A34003F68001F2B1
:10078B0008DFF48029E493A3F85407240CC8C3337F
:10079B00C4540F4420C8834004F456800146F6DF4E
:1007AB00E4800B0102040810204080900A13E47EC1
:1007BB00019360BCA3FF543F30E509541FFEE49343
:1007CB00A360010ECF54C025E060A840B8E493A30A
:1007DB00FAE493A3F8E493A3C8C582C8CAC583CA35
:1007EB00F0A3C8C582C8CAC583CADFE9DEE780BEED
:010A270000CE
:1004A600BB010689828A83E0225002E722BBFE0254
:0904B600E32289828A83E4932287
:1004BF00BC000BBE0029EF8DF084FFADF022E4CC21
:1004CF00F875F008EF2FFFEE33FEEC33FCEE9DECEA
:1004DF00984005FCEE9DFE0FD5F0E9E4CEFD22ED30
:1004EF00F8F5F0EE8420D21CFEADF075F008EF2F7A
:1004FF00FFED33FD4007985006D5F0F222C398FD6B
:05050F000FD5F0EA2207
:10051400C2D5EC30E709B2D5E4C39DFDE49CFCEE02
:1005240030E715B2D5E4C39FFFE49EFE1204BFC3B7
:10053400E49DFDE49CFC80031204BF30D507C3E4B2
:060544009FFFE49EFE2271
:0E054A00C3E49FFFE49EFEE49DFDE49CFC22C2
:00000001FF
