:0A02E200C0F9A4B0999282F8809050
:0802EC00020A000002080000F4
:0B02D700EF1FAC0670011E4C70F622F9
:10027100E4FDD2907F08FE1202D7C2907F507E002B
:100281001202D7D2907F0A7E001202D7A290E433E5
:08029100FD7F057E000202D78B
:1002B900E4FB7D08C290EBC313FBD290309003435B
:0D02C90003807F057E001202D7DDE9AF0340
:0102D6002205
:02029900AD07AF
:10029B007B08C290ED1392907F057E001202D7D29D
:0E02AB0090EDC313FDDBEB7F057E000202D752
:10023500E4FAFFFEFDFC1202717FCC1202997F44A5
:100245001202997FE87E031202D71202717FCC1247
:1002550002997FBE1202991202B9AA071202B9EFDA
:0B0265007F00FEEF2AFDE43EFEAF0527
:01027000226B
:07015A007F207E4E1202D748
:10016100120235AD07AC06ECC4F854F0C868FEEDD8
:10017100C4540F48FBAA06750F00ED540FF5107C0F
:10018100037DE8AF031201E07E007F64CFCDCFCEC7
:10019100CCCE1201E08F0C7C007D64AF03AE021265
:1001A10001E07E007F0ACFCDCFCECCCE1201E08F11
:1001B1000DAE02AF037C007D0A1201E08D0EE50D4C
:1001C10075F00AA4FDACF0E50C75F064A42DFFE513
:0E01D100F03CFE7C00EF250EF50BEC3EF50A2F
:0101DF0022FD
:1000030012016112015A12015A12015A12015A7F46
:10001300207E4E1202D7120161AE0AAF0B7C007D27
:10002300641201E07E007F0ACFCDCFCECCCE120189
:10003300E074E22FF58274023EF583E493F5A0AEFB
:100043000AAF0B7C007D0A1201E074E22DF5827485
:10005300023CF583E493F5B07F207E4E1202D785F0
:100063000A08850B09C3E5099414E50894005008B0
:10007300D291D292C293D294D3E509941EE5089407
:10008300004012E5099428E50894005008D291C273
:1000930092C293D294D3E5099432E50894004012B6
:1000A300E509943CE50894005008C291C292C293BA
:1000B300D294D3E50B943CE50A9400500302001953
:0B00C300C291C292C293C294020019C5
:030000000200CE2D
:0C00CE00787FE4F6D8FD75811002011562
:1001E000BC000BBE0029EF8DF084FFADF022E4CC03
:1001F000F875F008EF2FFFEE33FEEC33FCEE9DECCC
:10020000984005FCEE9DFE0FD5F0E9E4CEFD22ED11
:10021000F8F5F0EE8420D21CFEADF075F008EF2F5B
:10022000FFED33FD4007985006D5F0F222C398FD4C
:050230000FD5F0EA22E9
:1000DA00020003E493A3F8E493A34003F68001F239
:1000EA0008DFF48029E493A3F85407240CC8C33327
:1000FA00C4540F4420C8834004F456800146F6DFF6
:10010A00E4800B01020408102040809002ECE47E97
:10011A00019360BCA3FF543F30E509541FFEE493EA
:10012A00A360010ECF54C025E060A840B8E493A3B1
:10013A00FAE493A3F8E493A3C8C582C8CAC583CADC
:10014A00F0A3C8C582C8CAC583CADFE9DEE780BE94
:0102F4000009
:00000001FF
