:10036900C0F9A4B0999282F880908883C6A1868E3C
:10035800081014774C4527858400011946010D19AA
:10031B00E4FDFCC3ED9FEC9E5015E4FBFA0BBB0018
:0F032B00010AEB64784A70F50DBD00010C80E407
:01033A0022A0
:1002EC00EF14601014601614601C24037020D2A04C
:1002FC00C2A28004C2A0D2A2C2A4C2A622C2A0C220
:0F030C00A2D2A4C2A622C2A0C2A2C2A4D2A6227A
:10033B000508E508C394044003E4F5087580FFAF96
:0C034B00081202EC74102508F8E6F5809A
:010357002283
:10022100E4FFFEFDC292D293C290D292C292A2008A
:100231009293D292C292A2019293D292C292D293FB
:10024100D292C292EE25E0FE3093010E0FBF08F06C
:10025100E4FFEDC313FD3093032480FDD292C292DB
:100261000FBF08EED292D293D290EEB50502FF22D3
:020271007F000C
:010273002268
:10027400750F144390F0E59054F064F060337F01FF
:100284007E0012031BE59054F064F06027E509B486
:100294000122E4F509E59054F02450600C24E06058
:1002A4000C2460700F750F0122750F0222750F0365
:0402B40022750901A5
:0102B8002223
:10000300E50E700EE50FB40302C2B5E50FB40202AC
:10001300D2B5E50FB4010C050EE50EC394034003FE
:10002300E4F50EE50E64017047E50FB4020C051903
:10003300E519D394634003751963E50FB4030E15F3
:1000430019E519D3950D5005E50D04F519E5197555
:10005300F00A84E5F090036993F510E51975F00A49
:100063008475F00A84E5F093F5117512A175138B6D
:10007300E50E64027047E50FB4020E050DE50DC3EE
:1000830095194005E51914F50DE50FB4030C150D8D
:10009300E50DD394015003750D01E50D75F00A8448
:1000A300E5F090036993F510E50D75F00A8475F09A
:0E00B3000A84E5F093F5117512A17513C722AA
:1002B900E50CD3950D5010050AE50AC39402400ACE
:1002C900750A0AD2B58003E4F50AE50CC39519400D
:1002D9000E050BE50B94024009750B0AC2B522E421
:0202E900F50B13
:0102EB0022F0
:10014D007F647E0012031B75B0FF75A0FF7590FFD5
:10015D007580FF120274E50FC3940A500312000359
:10016D000518E518C394C8404AE4F5187580FFE5F5
:10017D000E7040D200C2011202218F0CEF75F06398
:10018D00A4FFAEF07C007DFF1201CC8F0C7510FF2B
:10019D00E50C75F00A84E5F090036993F511E50C13
:1001AD0075F00A8475F00A84E5F093F5127513FF66
:0F01BD001202B912033B7F017E0012031B8094D4
:030000000200C13A
:0C00C100787FE4F6D8FD7581200201086C
:1001CC00BC000BBE0029EF8DF084FFADF022E4CC17
:1001DC00F875F008EF2FFFEE33FEEC33FCEE9DECE0
:1001EC00984005FCEE9DFE0FD5F0E9E4CEFD22ED26
:1001FC00F8F5F0EE8420D21CFEADF075F008EF2F70
:10020C00FFED33FD4007985006D5F0F222C398FD60
:05021C000FD5F0EA22FD
:1000CD0002014DE493A3F8E493A34003F68001F2FB
:1000DD0008DFF48029E493A3F85407240CC8C33334
:1000ED00C4540F4420C8834004F456800146F6DF03
:1000FD00E4800B0102040810204080900358E47E38
:10010D00019360BCA3FF543F30E509541FFEE493F7
:10011D00A360010ECF54C025E060A840B8E493A3BE
:10012D00FAE493A3F8E493A3C8C582C8CAC583CAE9
:10013D00F0A3C8C582C8CAC583CADFE9DEE780BEA1
:010368000094
:00000001FF
