:030000000203BF39
:0C03BF00787FE4F6D8FD75812402040666
:1004FE003F065B4F666D7D077F6F0040FEFDFBF78D
:02050E00EFDF1D
:1004EC000210000AC101010EFF06120102030405ED
:0104FC0006F9
:0D052000EFD3940040077E78DEFE1F80F3CD
:01052D0022AB
:0300030002000EEA
:10000E0075B0FE85B00F530FF0E50F64F07003026C
:10001E0000E67F0512052085B00F530FF0E50F6443
:10002E00F070030200E6050E85B00FE50F24826026
:10003E007924C0604924E0602624F060030200D8D1
:10004E00751000751107C3E50E64809486507B20F1
:10005E000104741880027412250EF8A611803C75E6
:10006E001000751108C3E50E64809486505C200163
:10007E0004741880027412250EF8A611801D7510D6
:10008E0000751109C3E50E64809486503D2001046D
:10009E00741880027412250EF8A611900509E493C7
:1000AE00FF7408250EF8A6078020D201C293E4F54E
:1000BE0008F509F50AF50BF50CF50D750EFFC3E500
:1000CE000E648094865003120003E50F64F06008FE
:1000DE0085B00F530FF080F275B0FD85B00F530F42
:1000EE00F0E50F64F070030201957F05120520857F
:1000FE00B00F530FF0E50F64F07003020195050E7B
:10010E0085B00FE50F2443604624E0602324F07091
:10011E0068751000751104C3E50E648094865059FD
:10012E00200104741880027412250EF8A611803C6A
:10013E00751000751105C3E50E64809486503A2043
:10014E000104741880027412250EF8A611801D7514
:10015E001000751106C3E50E64809486501B2001B5
:10016E0004741880027412250EF8A611900509E485
:10017E0093FF7408250EF8A607E50F64F060088556
:10018E00B00F530FF080F275B0FB85B00F530FF028
:10019E00E50F64F070030202447F0512052085B05E
:1001AE000F530FF0E50F64F07003020244050E8545
:1001BE00B00FE50F2445604624E0602324F07068FC
:1001CE00751000751101C3E50E6480948650592098
:1001DE000104741880027412250EF8A611803C7565
:1001EE001000751102C3E50E64809486503A20010A
:1001FE0004741880027412250EF8A611801D751055
:10020E0000751103C3E50E64809486501B20010413
:10021E00741880027412250EF8A611900509E49345
:10022E00FF7408250EF8A607E50F64F0600885B088
:10023E000F530FF080F275B0F785B00F530FF0E546
:10024E000F64F070030202FD7F0512052085B00FCA
:10025E00530FF0E50F64F070030202FD050E85B03A
:10026E000FE50F2489603F24C0605F24D0602F24E7
:10027E0010706EE4F510F511C3E50E64809486508F
:10028E0060200104741880027412250EF8A61190D5
:10029E000509E493FF7408250EF8A6078043751030
:1002AE0000751114803BC291D293C2017510007576
:1002BE00110A750EFF900508E493F508F509F50A85
:1002CE00F50BF50CF50DD2908017150E7408250E52
:1002DE00F8E4F6150ED3E50E6480947F5003750E88
:1002EE00FFE50F64F0600885B00F530FF080F2AE9B
:0402FE0010AF11220A
:10051000758901758C45758A24D2A9D2AFD28C22F7
:10044B00E519B513047F0180027F00E518B512048E
:10045B007E0180027E00EE5FFFE51AB514047E017B
:10046B0080027E00EE5FFFE51BB515047E01800266
:10047B007E00EE5FFFE51CB516047E0180027E0058
:10048B00EE5FFFE51DB517047E0180027E00EE5F77
:0B049B006004D2008002C200A2002218
:10030200120510E4F580C29112000EE51164144545
:100312001070F5E50E64067065300104D293801109
:10032200C20112044B300017C290D291900506E42C
:1003320093F508F509F50AF50BF50CF50D80C9C220
:1003420091750871750971750A71750B71750C716A
:10035200750D71E4F521F522E4F523F5240524E574
:1003620024700205236450452370F2B2920522E5FF
:100372002270020521B4E8E0E521B403DB22C29138
:10038200750871750971750A71750B71750C717546
:100392000D71E4F521F522E4F523F5240524E52485
:1003A200700205236450452370F2B2920522E522C1
:0C03B20070020521B4E8E0E521B403DB93
:0103BE00221C
:03000B000204A646
:1004A600C0E0C083C082C0D075D000C000C005C007
:0304B60006C00776
:1004B900758C45758A24E4FD74082DF8E6F580ED00
:1004C90090050A93F5A07F051205207580000DBDE2
:0204D90006E635
:1004DB00D007D006D005D000D0D0D082D083D0E0CA
:0104EB0032DE
:1003CB00020302E493A3F8E493A34003F68001F243
:1003DB0008DFF48029E493A3F85407240CC8C33333
:1003EB00C4540F4420C8834004F456800146F6DF02
:1003FB00E4800B01020408102040809004ECE47EA2
:10040B00019360BCA3FF543F30E509541FFEE493F6
:10041B00A360010ECF54C025E060A840B8E493A3BD
:10042B00FAE493A3F8E493A3C8C582C8CAC583CAE8
:10043B00F0A3C8C582C8CAC583CADFE9DEE780BEA0
:0104FD0000FE
:00000001FF
