:1003260001030206040C080909080C04060203016D
:100336001030206040C080909080C0406020301017
:0803B200020B0320020D0320E1
:05000300120008D2917B
:0100080022D5
:0A039400D290120003C2900200088C
:0A039E00C290120003D29002000882
:0B02D8001202FF1202E3AF051202FF4A
:1002E300E4FFD29112000830900DEFC394FA7480AA
:0C02F300948050030F80F0C291020008BC
:0A03A800D290120008D29102000862
:10027F00E4FFC291120008D290120008FEEEC39460
:10028F0008748094805017D291120008EF25E0FF78
:0F029F00A290E4334FFFC2911200080E80DF22BD
:1002FF00E4FEEEC39408748094805011EF25E0FF64
:10030F00C29112000892901200030E80E5C2911262
:07031F000008D29002000863
:10034600AD071203947F901202D81203947F911284
:0B03560002FF1202E312027F02039E6E
:10036100AD071203947F901202FF1202E37F401245
:0803710002D812039E7F012255
:0B038900EF1FAC0670011E4C70F62246
:1001E90020B5297FE87E0312038920B51F20B50AAF
:1001F900C207C205C204C20080F3B201750D0375BE
:100209000E20750B03750C20C203C20220012A209F
:10021900B406D204C200800D20B606C204D2008002
:1002290004C200C20420B305D207C2052220B705C3
:0A023900C207D20522C205C2072247
:10000E002001030200C83006030200C8E509D3959B
:10001E00084029C204E5099508FFE49400FEC3EFE9
:10002E00940FEE648094804004D2008037D3EF9416
:10003E0004EE64809480502CC2008028C200C3E578
:10004E00089509FFE49400FEC3EF940FEE648094CC
:10005E00804004D204800DD3EF9404EE648094802B
:10006E005002C204E512D395114027C205E5129540
:10007E0011FFE49400FEC3EF940FEE648094804071
:10008E0003D20722D3EF9407EE648094805039C2D6
:10009E000722C207C3E5119512FFE49400FEC3EFD9
:1000AE00940FEE648094804003D20522D3EF940720
:1000BE00EE648094805011C2052230010B30060888
:0900CE00C200C204C207C20522EF
:1002AE00AF08EFF4601EEF601BAF09EFF46015EFBF
:1002BE006012AF11EFF4600CEF6009AF12EFF46053
:0A02CE0003EF7003D20622C20622DD
:1003790020060C200105C292D29322D292C2932266
:10024300758901758CF6758A3BD2AFD2A9D28C120F
:1002530003A81201E9E4FF1203468F087F0112038A
:10026300468F097F021203468F117F031203468FC5
:0C027300121202AE12000E12037980D6A7
:03000B000201638C
:10016300C0E0C083C082C0D075D000C006C0077590
:100173008CF6758A3B300407E50A90032680083025
:100183000012E50A90032E93FFE5A054F0FEEF4E14
:10019300F5A0800353A0F0300707E50A90033680EB
:1001A30008300512E50A90033E93FFE5A0540FFEC5
:1001B300EF4EF5A0800353A00FE50A045407F50A98
:1001C300300616050FD3E50F9427748094804009F9
:1001D300750F00B292A2929293D007D006D0D0D0DE
:0601E30082D083D0E0325F
:030000000200D724
:0C00D700787FE4F6D8FD75812002011E40
:1000E300020243E493A3F8E493A34003F68001F2EE
:1000F30008DFF48029E493A3F85407240CC8C3331E
:10010300C4540F4420C8834004F456800146F6DFEC
:10011300E4800B01020408102040809003B2E47EC7
:10012300019360BCA3FF543F30E509541FFEE493E1
:10013300A360010ECF54C025E060A840B8E493A3A8
:10014300FAE493A3F8E493A3C8C582C8CAC583CAD3
:10015300F0A3C8C582C8CAC583CADFE9DEE780BE8B
:0103BA000042
:00000001FF
