:0E048E00202054656D70657261747572650092
:1002C60012013F78107C007D007E007F051200D36E
:1002D600E514600CD20075080675092DC201800A66
:1002E600D200750806851009D201120406D20075DF
:1002F6000807851109D201120406D200750808857F
:100306001209D201120406D20075080A851309D211
:0403160001020406D6
:10038E001204D412047FC200E4F5087509FF750A41
:10039E0004750B8E12035AD20075080975092EC208
:0903AE00011204061202C680FBD4
:100444007590FFC2A0D2A1E59030E706C2A2D2A265
:0504540080F5C2A222A8
:0E049C00120444C2A0C2A1D2A28F90C2A2221A
:0E04AA00120444D2A0C2A1D2A28F90C2A222FC
:0504D4007F0102049C01
:0F047F007F0C12049C7F0612049C7F3802049CA1
:10040600E50830000424C080022480FF12049C30DA
:0F0416000107E5092430FF8002AF091204AA2272
:10035A00AB09AA0AA90B1200F96028E508300004C3
:10036A0024C080022480FF12049CAB09050BE50B14
:10037A00AA0A7002050A14F91200F9FF1204AA0562
:04038A000880CD22F8
:10031A002833C5B8000000D72830C5B80000008EC1
:10032A002831C5B8000000B92832C5B8000000E07D
:10033A002834C5B8000000522835C5B80000006549
:10034A002836C5B80000003C2837C5B80000000BA5
:0304D9000115000A
:0604B800E4FF0FBF04FC8D
:0104BE00221B
:0604BF00E4FF0FBF12FC78
:0104C5002214
:0604C600E4FF0FBF9EFCE5
:0104CC00220D
:0604CD00E4FF0FBF4EFC2E
:0104D3002206
:10045900E4FFE4FEE4FD0DBDDCFC0EBE03F60FBFB8
:02046900FAF0A7
:01046B00226E
:10046C00C2A71204C6D2A71204BF20A7F3D2A712A8
:03047C0004CD228A
:0203B700AE078F
:1003B900E4FDEEA805088002C313D8FC30E00BC2A7
:1003C900A70000D2A71204BF8007C2A71204BFD298
:0503D900A70DBD08DDC9
:0103DE0022FC
:10042500E4FDEEC313FEC2A70000D2A71204B83044
:0E043500A7034306801204BF0DBD08E6AF0604
:010443002296
:0603DF008B0D8A0E890F50
:1003E50012046C7F551203B7E4FCAB0DAA0EA90FDE
:1003F5008C82758300120112FF1203B70CBC08EA48
:0104050022D4
:10013F00E4F50C0515E515B4090375150112046CEA
:10014F007FCC1203B77F441203B71204591204591C
:10015F0012046CE51514B40800506790017875F01F
:10016F0003A4C58325F0C583730201900201980291
:10017F0001A00201A80201B00201B80201C00201F0
:10018F00C87BFF7A03791A80367BFF7A0379228046
:10019F002E7BFF7A03792A80267BFF7A03793280C0
:1001AF001E7BFF7A03793A80167BFF7A03794280B0
:1001BF000E7BFF7A03794A80067BFF7A037952120E
:1001CF0003DF7FBE1203B7120425AC07120425EF1D
:1001DF00FEAD04EDFFEE30E710750C01EFF4FFEE0E
:1001EF00F4FEEF2401FFE43EFEEF540FFDEEC4F8E2
:1001FF0054F0C8EFC4540F48FFED75F005A4131366
:10020F0013541FFDEF75F06484F508AC07EC75F01F
:10021F006484E5F075F00A84F509EF75F00A8485BA
:0A022F00F00A8D0B7B007A007908BD
:0102390022A2
:0300000002023ABF
:0C023A00787FE4F6D8FD75812002028177
:1002460002038EE493A3F8E493A34003F68001F23D
:1002560008DFF48029E493A3F85407240CC8C333B9
:10026600C4540F4420C8834004F456800146F6DF88
:10027600E4800B01020408102040809004D9E47E3B
:10028600019360BCA3FF543F30E509541FFEE4937D
:10029600A360010ECF54C025E060A840B8E493A344
:1002A600FAE493A3F8E493A3C8C582C8CAC583CA6F
:1002B600F0A3C8C582C8CAC583CADFE9DEE780BE27
:0104DC00001F
:10000300E709F608DFFA8046E709F208DFFA803EDF
:1000130088828C83E709F0A3DFFA8032E309F608CC
:10002300DFFA8078E309F208DFFA807088828C8334
:10003300E309F0A3DFFA806489828A83E0A3F608E8
:10004300DFFA805889828A83E0A3F208DFFA804CC2
:1000530080D280FA80C680D4806980F28033801099
:1000630080A680EA809A80A880DA80E280CA803302
:1000730089828A83ECFAE493A3C8C582C8CCC5837A
:10008300CCF0A3C8C582C8CCC583CCDFE9DEE7804A
:100093000D89828A83E493A3F608DFF9ECFAA9F0C9
:1000A300EDFB2289828A83ECFAE0A3C8C582C8CC1F
:1000B300C583CCF0A3C8C582C8CCC583CCDFEADE38
:1000C300E880DB89828A83E493A3F208DFF980CC9A
:1000D30088F0EF60010E4E60C388F0ED2402B40493
:1000E3000050B9F582EB2402B4040050AF2323453A
:0600F3008223900053730C
:1000F900BB010689828A83E0225002E722BBFE0205
:09010900E32289828A83E4932237
:10011200BB010CE58229F582E5833AF583E02250A2
:1001220006E92582F8E622BBFE06E92582F8E222EC
:0D013200E58229F582E5833AF583E4932206
:00000001FF
