:0300000002023ABF
:0C023A00787FE4F6D8FD75812002028177
:10031A00202054656D7065726174757265002833AA
:10032A00C5B8000000D72830C5B80000008E2831B3
:10033A00C5B8000000B92832C5B8000000E028346A
:10034A00C5B8000000522835C5B800000065283637
:0E035A00C5B80000003C2837C5B80000000BF5
:0304D9000110000F
:100452007590FFC2A0D2A1E59030E706C2A2D2A257
:0504620080F5C2A2229A
:0E049C00120452C2A0C2A1D2A28F90C2A2220C
:0E04AA00120452D2A0C2A1D2A28F90C2A222EE
:0504D4007F0102049C01
:0F048D007F0C12049C7F0612049C7F3802049C93
:10041400E50830000424C080022480FF12049C30CC
:0F0424000107E5092430FF8002AF091204AA2264
:10036800AB09AA0AA90B1200F96028E508300004B5
:1003780024C080022480FF12049CAB09050BE50B06
:10038800AA0A7002050A14F91200F9FF1204AA0554
:040398000880CD22EA
:0604B800E4FF0FBF04FC8D
:0104BE00221B
:0604BF00E4FF0FBF12FC78
:0104C5002214
:0604C600E4FF0FBF9EFCE5
:0104CC00220D
:0604CD00E4FF0FBF4EFC2E
:0104D3002206
:10046700E4FFE4FEE4FD0DBDDCFC0EBE03F60FBFAA
:02047700FAF099
:010479002260
:10047A00C2A71204C6D2A71204BF20A7F3D2A7129A
:03048A0004CD227C
:0203C500AE0781
:1003C700E4FDEEA805088002C313D8FC30E00BC299
:1003D700A70000D2A71204BF8007C2A71204BFD28A
:0503E700A70DBD08DDBB
:0103EC0022EE
:10043300E4FDEEC313FEC2A70000D2A71204B83036
:0E044300A7034306801204BF0DBD08E6AF06F6
:010451002288
:0603ED008B0D8A0E890F42
:1003F30012047A7F551203C5E4FCAB0DAA0EA90FB4
:100403008C82758300120112FF1203C50CBC08EA2B
:0104130022C6
:10013F00E4F50C0510E510B4090375100112047AEB
:10014F007FCC1203C57F441203C5120467120467E4
:10015F0012047AE51014B40800506790017875F016
:10016F0003A4C58325F0C583730201900201980291
:10017F0001A00201A80201B00201B80201C00201F0
:10018F00C87BFF7A03792880367BFF7A037930802A
:10019F002E7BFF7A03793880267BFF7A03794080A4
:1001AF001E7BFF7A03794880167BFF7A0379508094
:1001BF000E7BFF7A03795880067BFF7A03796012F2
:1001CF0003ED7FBE1203C5120433AC07120433EFE5
:1001DF00FEAD04EDFFEE30E710750C01EFF4FFEE0E
:1001EF00F4FEEF2401FFE43EFEEF540FFDEEC4F8E2
:1001FF0054F0C8EFC4540F48FFED75F005A4131366
:10020F0013541FFDEF75F06484F508AC07EC75F01F
:10021F006484E5F075F00A84F509EF75F00A8485BA
:0A022F00F00A8D0B7B007A007908BD
:0102390022A2
:1002C60012013F78117C007D007E007F051200D36D
:1002D600E515600CD20075080675092DC201800A65
:1002E600D200750806851109D201120414D20075D0
:1002F6000807851209D201120414D2007508088570
:100306001309D201120414D20075080A851409D201
:0403160001020414C8
:10039C001204D412048DC200E4F5087509FF750A25
:1003AC0003750B1A120368D20075080975092EC261
:0903BC00011204141202C680FBB8
:1002460002039CE493A3F8E493A34003F68001F22F
:1002560008DFF48029E493A3F85407240CC8C333B9
:10026600C4540F4420C8834004F456800146F6DF88
:10027600E4800B01020408102040809004D9E47E3B
:10028600019360BCA3FF543F30E509541FFEE4937D
:10029600A360010ECF54C025E060A840B8E493A344
:1002A600FAE493A3F8E493A3C8C582C8CAC583CA6F
:1002B600F0A3C8C582C8CAC583CADFE9DEE780BE27
:0104DC00001F
:10000300E709F608DFFA8046E709F208DFFA803EDF
:1000130088828C83E709F0A3DFFA8032E309F608CC
:10002300DFFA8078E309F208DFFA807088828C8334
:10003300E309F0A3DFFA806489828A83E0A3F608E8
:10004300DFFA805889828A83E0A3F208DFFA804CC2
:1000530080D280FA80C680D4806980F28033801099
:1000630080A680EA809A80A880DA80E280CA803302
:1000730089828A83ECFAE493A3C8C582C8CCC5837A
:10008300CCF0A3C8C582C8CCC583CCDFE9DEE7804A
:100093000D89828A83E493A3F608DFF9ECFAA9F0C9
:1000A300EDFB2289828A83ECFAE0A3C8C582C8CC1F
:1000B300C583CCF0A3C8C582C8CCC583CCDFEADE38
:1000C300E880DB89828A83E493A3F208DFF980CC9A
:1000D30088F0EF60010E4E60C388F0ED2402B40493
:1000E3000050B9F582EB2402B4040050AF2323453A
:0600F3008223900053730C
:1000F900BB010689828A83E0225002E722BBFE0205
:09010900E32289828A83E4932237
:10011200BB010CE58229F582E5833AF583E02250A2
:1001220006E92582F8E622BBFE06E92582F8E222EC
:0D013200E58229F582E5833AF583E4932206
:00000001FF
