:10031F0001030206040C080909080C040602030174
:10032F001030206040C080909080C040602030101E
:08039700020B0320020D0320FC
:05000300120008D2917B
:0100080022D5
:0A037900D290120003C290020008A7
:0A038300C290120003D2900200089D
:03033F001202D8CF
:10034200E4FFD29112000830900DEFC394FA74804A
:0C035200948050030F80F0C2910200085C
:0A038D00D290120008D2910200087D
:10027F00E4FFC291120008D290120008FEEEC39460
:10028F0008748094805017D291120008EF25E0FF78
:0F029F00A290E4334FFFC2911200080E80DF22BD
:1002D800E4FEEEC39408748094805011EF25E0FF8B
:1002E800C29112000892901200030E80E5C291128A
:0702F8000008D2900200088B
:1002FF00AD071203797F9012033FAF0512033F1230
:10030F0003797F911202D812034212027F020383F4
:0B036E00EF1FAC0670011E4C70F62261
:1001E90020B5297FE87E0312036E20B51F20B50ACA
:1001F900C207C205C204C20080F3B201750D0375BE
:100209000E20750B03750C20C203C20220012A209F
:10021900B406D204C200800D20B606C204D2008002
:1002290004C200C20420B305D207C2052220B705C3
:0A023900C207D20522C205C2072247
:10000E002001030200C83006030200C8E509D3959B
:10001E00084029C204E5099508FFE49400FEC3EFE9
:10002E00940FEE648094804004D2008037D3EF9416
:10003E0004EE64809480502CC2008028C200C3E578
:10004E00089509FFE49400FEC3EF940FEE648094CC
:10005E00804004D204800DD3EF9404EE648094802B
:10006E005002C204E512D395114027C205E5129540
:10007E0011FFE49400FEC3EF940FEE648094804071
:10008E0003D20722D3EF9407EE648094805039C2D6
:10009E000722C207C3E5119512FFE49400FEC3EFD9
:1000AE00940FEE648094804003D20522D3EF940720
:1000BE00EE648094805011C2052230010B30060888
:0900CE00C200C204C207C20522EF
:1002AE00AF08EFF4601EEF601BAF09EFF46015EFBF
:1002BE006012AF11EFF4600CEF6009AF12EFF46053
:0A02CE0003EF7003D20622C20622DD
:10035E0020060C200105C292D29322D292C2932281
:10024300758901758CF6758A3BD2AFD2A9D28C120F
:10025300038D1201E9E4FF1202FF8F087F011202EE
:10026300FF8F097F021202FF8F117F031202FF8F9C
:0C027300121202AE12000E12035E80D6C2
:03000B000201638C
:10016300C0E0C083C082C0D075D000C006C0077590
:100173008CF6758A3B300407E50A90031F8008302C
:100183000012E50A90032793FFE5A054F0FEEF4E1B
:10019300F5A0800353A0F0300707E50A90032F80F2
:1001A30008300512E50A90033793FFE5A0540FFECC
:1001B300EF4EF5A0800353A00FE50A045407F50A98
:1001C300300616050FD3E50F9427748094804009F9
:1001D300750F00B292A2929293D007D006D0D0D0DE
:0601E30082D083D0E0325F
:030000000200D724
:0C00D700787FE4F6D8FD75812002011E40
:1000E300020243E493A3F8E493A34003F68001F2EE
:1000F30008DFF48029E493A3F85407240CC8C3331E
:10010300C4540F4420C8834004F456800146F6DFEC
:10011300E4800B0102040810204080900397E47EE2
:10012300019360BCA3FF543F30E509541FFEE493E1
:10013300A360010ECF54C025E060A840B8E493A3A8
:10014300FAE493A3F8E493A3C8C582C8CAC583CAD3
:10015300F0A3C8C582C8CAC583CADFE9DEE780BE8B
:01039F00005D
:00000001FF
