:1003300001030206040C080909080C040602030163
:100340001030206040C080909080C040602030100D
:0803C100020B0320020D0320D2
:05000300120008D2917B
:0100080022D5
:0A03A300D290120003C2900200087D
:0A03AD00C290120003D29002000873
:0B02E2001203091202EDAF0512030920
:1002ED00E4FFD29112000830900DEFC394FA7480A0
:0C02FD00948050030F80F0C291020008B2
:0A03B700D290120008D29102000853
:1002B300E4FFC291120008D290120008FEEEC3942C
:1002C30008748094805017D291120008EF25E0FF44
:0F02D300A290E4334FFFC2911200080E80DF2289
:10030900E4FEEEC39408748094805011EF25E0FF59
:10031900C29112000892901200030E80E5C2911258
:070329000008D29002000859
:10038300AC071203A37F901203091202EDAF04120C
:0503930002E20203ADCF
:10035000AD071203A37F901202E21203A37F911252
:0B03600003091202ED1202B30203AD0C
:10036B00AD071203A37F901203091202ED7F401217
:08037B0002E21203AD7F012232
:0B039800EF1FAC0670011E4C70F62237
:1002590020B5297FE87E0312039820B51F20B50A2F
:10026900C207C205C204C20080F3B201750D03754D
:100279000E20750B03750C20C203C20220012A202F
:10028900B406D204C200800D20B606C204D2008092
:1002990004C200C20420B305D207C2052220B70553
:0A02A900C207D20522C205C20722D7
:10000E002001030200C83006030200C8E509D3959B
:10001E00084029C204E5099508FFE49400FEC3EFE9
:10002E00940FEE648094804004D2008037D3EF9416
:10003E0004EE64809480502CC2008028C200C3E578
:10004E00089509FFE49400FEC3EF940FEE648094CC
:10005E00804004D204800DD3EF9404EE648094802B
:10006E005002C204E512D395114027C205E5129540
:10007E0011FFE49400FEC3EF940FEE648094804071
:10008E0003D20722D3EF9407EE648094805039C2D6
:10009E000722C207C3E5119512FFE49400FEC3EFD9
:1000AE00940FEE648094804003D20522D3EF940720
:1000BE00EE648094805011C2052230010B30060888
:0900CE00C200C204C207C20522EF
:1001E900758901758CF6758A3BD2AFD2A9D28C126A
:1001F90003B7120259E4FF1203508F087F0112035B
:10020900508F097F021203508F117F031203508F01
:1002190012AF08EFF4601EEF601BAF09EFF4601531
:10022900EF6012AF11EFF4600CEF6009AF12EFF459
:100239006003EF7004D2068002C20612000E200687
:10024900B1200106C292D29380A8D292C29380A211
:03000B000201638C
:10016300C0E0C083C082C0D075D000C006C0077590
:100173008CF6758A3B300407E50A9003308008301B
:100183000012E50A90033893FFE5A054F0FEEF4E0A
:10019300F5A0800353A0F0300707E50A90034080E1
:1001A30008300512E50A90034893FFE5A0540FFEBB
:1001B300EF4EF5A0800353A00FE50A045407F50A98
:1001C300300616050FD3E50F9427748094804009F9
:1001D300750F00B292A2929293D007D006D0D0D0DE
:0601E30082D083D0E0325F
:030000000200D724
:0C00D700787FE4F6D8FD75812002011E40
:1000E3000201E9E493A3F8E493A34003F68001F249
:1000F30008DFF48029E493A3F85407240CC8C3331E
:10010300C4540F4420C8834004F456800146F6DFEC
:10011300E4800B01020408102040809003C1E47EB8
:10012300019360BCA3FF543F30E509541FFEE493E1
:10013300A360010ECF54C025E060A840B8E493A3A8
:10014300FAE493A3F8E493A3C8C582C8CAC583CAD3
:10015300F0A3C8C582C8CAC583CADFE9DEE780BE8B
:0103C9000033
:00000001FF
