:100000000203C630B2030202427F0F12084C7D0386
:10001000E4FF1207DA7F0A7E0012076D30B2FD7F1F
:100020000A7E0012076D20B413E509D39400400244
:1000300015091207B07D03E4FF12076620B513E52A
:1000400009C39463500205091207B07D03E4FF124F
:10005000076620B2D17D06E4FF1207DA7F0A7E0030
:1000600012076D30B2FD7F0A7E0012076D20B41CAE
:10007000E50AD394014002150A7D05E4FF1207DA70
:10008000AF0A1207B97D06E4FF12076620B51CE52A
:100090000AC3940C5002050A7D05E4FF1207DAAF8B
:1000A0000A1207B97D06E4FF12076620B2BF7D0978
:1000B000E4FF1207DA7F0A7E0012076D30B2FD7F7F
:1000C0000A7E0012076D20B41CE50BD39401400298
:1000D000150B7D08E4FF1207DAAF0B1207B97D0993
:1000E000E4FF12076620B51CE50BC3941F50020500
:1000F0000B7D08E4FF1207DAAF0B1207B97D09E4A4
:10010000FF12076620B2BF7D0FE4FF1207DA7F0AF5
:100110007E0012076D30B2FD7F0A7E0012076D204F
:10012000B413E50CD394014002150C1205357D0F74
:10013000E4FF12076620B513E50CC39407500205CF
:100140000C1205357D0FE4FF12076620B2D17D0544
:100150007F011207DA7F0A7E0012076D30B2FD7F41
:100160000A7E0012076D20B40CE50DD39400400206
:10017000150D12075620B50CE50DC3941750020556
:100180000D12075620B2DF7D087F011207DA7F0AC1
:100190007E0012076D30B2FD7F0A7E0012076D20CF
:1001A000B41AE50ED394004002150E7D077F0112AC
:1001B00007DAAF0E1207B97D0812076420B51AE5F9
:1001C0000EC3943B5002050E7D077F011207DAAF84
:1001D0000E1207B97D0812076420B2C37D0B7F01A0
:1001E0001207DA7F0A7E0012076D30B2FD7F0A7EA9
:1001F0000012076D20B416E50FD394004002150FCE
:100200001207D6AF0F1207B97D0B12076420B5167F
:10021000E50FC3943B5002050F1207D6AF0F12072C
:10022000B97D0B12076420B2CB7F0C12084C12046C
:10023000527F0A7E0012076D30B2FD7F0A7E0012E7
:10024000076D2230B3030203C5E4FDFF1207DA7B1A
:10025000FF7A05790B12078BE4FD7F011207DA7B29
:10026000FF7A05791C12078B7D037F011207DAAF35
:10027000121207B97D067F011207DAAF101207D3F9
:10028000E5087BFF70067A05792D80047A057931BF
:1002900012078B7D047F011207DA7F0F12084C7F53
:1002A0000A7E0012076D30B3FD7F0A7E0012076DD3
:1002B00020B41AE512D39400400215127D037F0189
:1002C0001207DAAF121207B97D0412076420B51ABB
:1002D000E512C39417500205127D037F011207DA5D
:1002E000AF121207B97D0412076420B3C37D077FE4
:1002F000011207DA7F0A7E0012076D30B3FD7F0A14
:100300007E0012076D20B41AE510D3940040021548
:10031000107D067F011207DAAF101207B97D0712B0
:10032000076420B51AE510C3943B500205107D0602
:100330007F011207DAAF101207B97D071207642098
:10034000B3C37D0C7F011207DA7F0A7E0012076DAE
:1003500030B3FD7F0A7E0012076D20B419E508B4A2
:100360000103E4F5081207D67BFF7A05792D120701
:100370008B7D0C12076420B518E508700375080121
:100380001207D67BFF7A05793112078B7D0C120795
:100390006420B3C67F0C12084C1208127F0A7E003C
:1003A00012076D30B3FD7F0A7E0012076D7F007E5D
:1003B00020120882AD12120831AD100F120831ADB3
:1003C000080F12083122787FE4F6D8FD75811502F6
:1003D000040D0205A2E493A3F8E493A34003F6807E
:1003E00001F208DFF48029E493A3F85407240CC831
:1003F000C333C4540F4420C8834004F456800146DC
:10040000F6DFE4800B01020408102040809008C849
:10041000E47E019360BCA3FF543F30E509541FFE06
:10042000E493A360010ECF54C025E060A840B8E477
:1004300093A3FAE493A3F8E493A3C8C582C8CAC5FA
:1004400083CAF0A3C8C582C8CAC583CADFE9DEE78C
:1004500080BEE4FF74092FF8E6FE75F00A84C454E8
:10046000F0FDEE75F00A84AEF0ED2EFC74092FF865
:10047000A6040FBF07DEE4FD7F8E12071D7D807F7F
:100480008012071DAD097F8C12071DAD0A7F8812EF
:10049000071DAD0B7F8612071DAD0C7F8A12071D4D
:1004A000AD0D7F8412071DAD0E7F8212071DAD0FAB
:1004B0007F8012071DE50F547FFD7F8012071D7D91
:1004C000807F8E02071D323020202D20202D2020FD
:1004D000202020202020002020202020203A202022
:1004E0003A202020202020002053756E00204D6FE0
:1004F0006E0054756573002057656400546875720A
:100500000020467269002053617400416C61726D75
:1005100020436C6F636B20536574200020202020E3
:10052000203A20202020202020202020004F464656
:1005300000204F4E007D0CE4FF1207DAAF0CEF14E1
:10054000B40700505C90055375F003A4C58325F0F3
:10055000C5837302056802057002057802058002F2
:1005600005880205900205987BFF7A0479E8802EC1
:100570007BFF7A0479ED80267BFF7A0479F2801E76
:100580007BFF7A0479F780167BFF7A0479FC800E72
:100590007BFF7A05790180067BFF7A0579061207D1
:1005A0008B221208B41208DD1208127F811206E1B4
:1005B000EFC3948040031204527F007E201207F3A1
:1005C0008F12E512D39417400375120C7F017E2021
:1005D0001207F38F10E510D3943B400375101E7F74
:1005E000027E201207F38F08E508D394014003E44C
:1005F000F50812060A1206A212065E120003120283
:10060000437F647E0012076D80E87F8D1206E18FC4
:10061000097F891206E18F0A7F871206E18F0B7F1F
:100620008B1206E18F0C7F851206E18F0D7F8312FE
:1006300006E18F0E7F811206E1EF547FF50FE4FF94
:1006400074092FF8E6FEC4540F75F00AA4FDEE54A9
:100650000F2DFE74092FF8A6060FBF07E32212071D
:10066000B07D05E4FF1207DAAF0A1207B97D08E48E
:10067000FF1207DAAF0B1207B97D047F011207DA08
:10068000AF0D1207B97D077F011207DAAF0E12070F
:10069000D3AF0F1207B97D0CE4FF1207DAAF0C02DB
:1006A000053EE508B40111E512B50D0CE510B50ED7
:1006B00007E50F7003751101E50FB43B03E4F51175
:1006C00030B40320B503E4F511E511B40112C2A062
:1006D0007F647E0012076DD2A07F647E0012076DDA
:1006E00022D293E4FDEF30E004D2928002C292D293
:1006F0009100C29100EFC313FF0DBD08E8E4FDEEC9
:10070000C313FE309205430680800353067FD291C7
:1007100000C291000DBD08E7C293AF0622D293E458
:10072000FEEF30E004D2928002C292D29100C291D8
:1007300000EFC313FF0EBE08E8E4FEED30E004D284
:10074000928002C292D29100C29100EDC313FD0EBD
:10075000BE08E8C293227D047F011207DAAF0D12B2
:1007600007B97D057F011207DA7F2C7E01D3EF9454
:1007700000EE940040147D707C00ED1D70011CEDB6
:100780004C70F7EF1F70E61E80E3228B138A1489EA
:1007900015AB13AA14A91512089B60130515E515CE
:1007A0007002051414F912089BFF12086780E222F8
:1007B0007D02E4FF1207DAAF09AB07EB75F00A849C
:1007C0002430FF120867EB75F00A84E5F02430FF4F
:1007D0000208671207B97D0A7F01AB05AA07EA7014
:1007E00007EB2480FF12084CBA0107EB24C0FF126C
:1007F000084C22AD07AC06E4F5E275E78375E50128
:100800008CE3EDF5E475E64675E6B9001208D5AF60
:10081000E222E4FDFF1207DA7BFF7A0479C61207B1
:100820008BE4FD7F011207DA7BFF7A0479D7020798
:100830008BAB07AA0675E78375E5028AE3EBF5E45F
:100840008DE275E64675E6B9000208D5C2A7C2A6D4
:10085000C2A58F807F027E0012076DD2A57F027E27
:100860000012076DC2A522D2A7C2A6C2A58F807FA3
:10087000027E0012076DD2A57F027E0012076DC2B4
:10088000A522AD07AC0675E78375E5038CE3EDF5AE
:10089000E475E64675E6B9000208D5BB0106898213
:1008A0008A83E0225002E722BBFE02E32289828A89
:1008B00083E493227F3812084C7F0C12084C7F0689
:1008C00012084C7F0102084C070910080506121E89
:1008D0003201110000E4F5E7F5E3F5E422C293C22A
:0408E00091C292220D
:00000001FF
